{
  "_format": "hh-sol-artifact-1",
  "contractName": "NewToken",
  "sourceName": "contracts/Token.sol",
  "abi": [
    {
      "inputs": [
        {
          "internalType": "uint256",
          "name": "initialSupply",
          "type": "uint256"
        },
        {
          "internalType": "string",
          "name": "name",
          "type": "string"
        },
        {
          "internalType": "string",
          "name": "symbol",
          "type": "string"
        }
      ],
      "stateMutability": "nonpayable",
      "type": "constructor"
    },
    {
      "inputs": [],
      "name": "ECDSAInvalidSignature",
      "type": "error"
    },
    {
      "inputs": [
        {
          "internalType": "uint256",
          "name": "length",
          "type": "uint256"
        }
      ],
      "name": "ECDSAInvalidSignatureLength",
      "type": "error"
    },
    {
      "inputs": [
        {
          "internalType": "bytes32",
          "name": "s",
          "type": "bytes32"
        }
      ],
      "name": "ECDSAInvalidSignatureS",
      "type": "error"
    },
    {
      "inputs": [
        {
          "internalType": "address",
          "name": "spender",
          "type": "address"
        },
        {
          "internalType": "uint256",
          "name": "allowance",
          "type": "uint256"
        },
        {
          "internalType": "uint256",
          "name": "needed",
          "type": "uint256"
        }
      ],
      "name": "ERC20InsufficientAllowance",
      "type": "error"
    },
    {
      "inputs": [
        {
          "internalType": "address",
          "name": "sender",
          "type": "address"
        },
        {
          "internalType": "uint256",
          "name": "balance",
          "type": "uint256"
        },
        {
          "internalType": "uint256",
          "name": "needed",
          "type": "uint256"
        }
      ],
      "name": "ERC20InsufficientBalance",
      "type": "error"
    },
    {
      "inputs": [
        {
          "internalType": "address",
          "name": "approver",
          "type": "address"
        }
      ],
      "name": "ERC20InvalidApprover",
      "type": "error"
    },
    {
      "inputs": [
        {
          "internalType": "address",
          "name": "receiver",
          "type": "address"
        }
      ],
      "name": "ERC20InvalidReceiver",
      "type": "error"
    },
    {
      "inputs": [
        {
          "internalType": "address",
          "name": "sender",
          "type": "address"
        }
      ],
      "name": "ERC20InvalidSender",
      "type": "error"
    },
    {
      "inputs": [
        {
          "internalType": "address",
          "name": "spender",
          "type": "address"
        }
      ],
      "name": "ERC20InvalidSpender",
      "type": "error"
    },
    {
      "inputs": [
        {
          "internalType": "uint256",
          "name": "deadline",
          "type": "uint256"
        }
      ],
      "name": "ERC2612ExpiredSignature",
      "type": "error"
    },
    {
      "inputs": [
        {
          "internalType": "address",
          "name": "signer",
          "type": "address"
        },
        {
          "internalType": "address",
          "name": "owner",
          "type": "address"
        }
      ],
      "name": "ERC2612InvalidSigner",
      "type": "error"
    },
    {
      "inputs": [
        {
          "internalType": "address",
          "name": "account",
          "type": "address"
        },
        {
          "internalType": "uint256",
          "name": "currentNonce",
          "type": "uint256"
        }
      ],
      "name": "InvalidAccountNonce",
      "type": "error"
    },
    {
      "inputs": [],
      "name": "InvalidShortString",
      "type": "error"
    },
    {
      "inputs": [
        {
          "internalType": "address",
          "name": "owner",
          "type": "address"
        }
      ],
      "name": "OwnableInvalidOwner",
      "type": "error"
    },
    {
      "inputs": [
        {
          "internalType": "address",
          "name": "account",
          "type": "address"
        }
      ],
      "name": "OwnableUnauthorizedAccount",
      "type": "error"
    },
    {
      "inputs": [
        {
          "internalType": "string",
          "name": "str",
          "type": "string"
        }
      ],
      "name": "StringTooLong",
      "type": "error"
    },
    {
      "anonymous": false,
      "inputs": [
        {
          "indexed": true,
          "internalType": "address",
          "name": "owner",
          "type": "address"
        },
        {
          "indexed": true,
          "internalType": "address",
          "name": "spender",
          "type": "address"
        },
        {
          "indexed": false,
          "internalType": "uint256",
          "name": "value",
          "type": "uint256"
        }
      ],
      "name": "Approval",
      "type": "event"
    },
    {
      "anonymous": false,
      "inputs": [
        {
          "indexed": true,
          "internalType": "address",
          "name": "account",
          "type": "address"
        },
        {
          "indexed": true,
          "internalType": "uint256",
          "name": "amount",
          "type": "uint256"
        }
      ],
      "name": "BurnEvent",
      "type": "event"
    },
    {
      "anonymous": false,
      "inputs": [],
      "name": "EIP712DomainChanged",
      "type": "event"
    },
    {
      "anonymous": false,
      "inputs": [
        {
          "indexed": true,
          "internalType": "address",
          "name": "to",
          "type": "address"
        },
        {
          "indexed": true,
          "internalType": "uint256",
          "name": "amount",
          "type": "uint256"
        }
      ],
      "name": "MintEvent",
      "type": "event"
    },
    {
      "anonymous": false,
      "inputs": [
        {
          "indexed": true,
          "internalType": "address",
          "name": "previousOwner",
          "type": "address"
        },
        {
          "indexed": true,
          "internalType": "address",
          "name": "newOwner",
          "type": "address"
        }
      ],
      "name": "OwnershipTransferred",
      "type": "event"
    },
    {
      "anonymous": false,
      "inputs": [
        {
          "indexed": true,
          "internalType": "address",
          "name": "from",
          "type": "address"
        },
        {
          "indexed": true,
          "internalType": "address",
          "name": "to",
          "type": "address"
        },
        {
          "indexed": false,
          "internalType": "uint256",
          "name": "value",
          "type": "uint256"
        }
      ],
      "name": "Transfer",
      "type": "event"
    },
    {
      "inputs": [],
      "name": "DOMAIN_SEPARATOR",
      "outputs": [
        {
          "internalType": "bytes32",
          "name": "",
          "type": "bytes32"
        }
      ],
      "stateMutability": "view",
      "type": "function"
    },
    {
      "inputs": [
        {
          "internalType": "string",
          "name": "id",
          "type": "string"
        },
        {
          "internalType": "address",
          "name": "addr",
          "type": "address"
        }
      ],
      "name": "addId",
      "outputs": [],
      "stateMutability": "nonpayable",
      "type": "function"
    },
    {
      "inputs": [
        {
          "internalType": "address",
          "name": "owner",
          "type": "address"
        },
        {
          "internalType": "address",
          "name": "spender",
          "type": "address"
        }
      ],
      "name": "allowance",
      "outputs": [
        {
          "internalType": "uint256",
          "name": "",
          "type": "uint256"
        }
      ],
      "stateMutability": "view",
      "type": "function"
    },
    {
      "inputs": [
        {
          "internalType": "address",
          "name": "spender",
          "type": "address"
        },
        {
          "internalType": "uint256",
          "name": "value",
          "type": "uint256"
        }
      ],
      "name": "approve",
      "outputs": [
        {
          "internalType": "bool",
          "name": "",
          "type": "bool"
        }
      ],
      "stateMutability": "nonpayable",
      "type": "function"
    },
    {
      "inputs": [
        {
          "internalType": "address",
          "name": "account",
          "type": "address"
        }
      ],
      "name": "balanceOf",
      "outputs": [
        {
          "internalType": "uint256",
          "name": "",
          "type": "uint256"
        }
      ],
      "stateMutability": "view",
      "type": "function"
    },
    {
      "inputs": [
        {
          "internalType": "string",
          "name": "id",
          "type": "string"
        }
      ],
      "name": "balanceOfId",
      "outputs": [
        {
          "internalType": "uint256",
          "name": "",
          "type": "uint256"
        }
      ],
      "stateMutability": "view",
      "type": "function"
    },
    {
      "inputs": [
        {
          "internalType": "address",
          "name": "account",
          "type": "address"
        },
        {
          "internalType": "uint256",
          "name": "amount",
          "type": "uint256"
        }
      ],
      "name": "burn",
      "outputs": [],
      "stateMutability": "nonpayable",
      "type": "function"
    },
    {
      "inputs": [],
      "name": "decimals",
      "outputs": [
        {
          "internalType": "uint8",
          "name": "",
          "type": "uint8"
        }
      ],
      "stateMutability": "pure",
      "type": "function"
    },
    {
      "inputs": [],
      "name": "eip712Domain",
      "outputs": [
        {
          "internalType": "bytes1",
          "name": "fields",
          "type": "bytes1"
        },
        {
          "internalType": "string",
          "name": "name",
          "type": "string"
        },
        {
          "internalType": "string",
          "name": "version",
          "type": "string"
        },
        {
          "internalType": "uint256",
          "name": "chainId",
          "type": "uint256"
        },
        {
          "internalType": "address",
          "name": "verifyingContract",
          "type": "address"
        },
        {
          "internalType": "bytes32",
          "name": "salt",
          "type": "bytes32"
        },
        {
          "internalType": "uint256[]",
          "name": "extensions",
          "type": "uint256[]"
        }
      ],
      "stateMutability": "view",
      "type": "function"
    },
    {
      "inputs": [
        {
          "internalType": "string",
          "name": "id",
          "type": "string"
        }
      ],
      "name": "getAddress",
      "outputs": [
        {
          "internalType": "address",
          "name": "",
          "type": "address"
        }
      ],
      "stateMutability": "view",
      "type": "function"
    },
    {
      "inputs": [
        {
          "internalType": "string",
          "name": "",
          "type": "string"
        }
      ],
      "name": "idMap",
      "outputs": [
        {
          "internalType": "address",
          "name": "",
          "type": "address"
        }
      ],
      "stateMutability": "view",
      "type": "function"
    },
    {
      "inputs": [
        {
          "internalType": "address",
          "name": "to",
          "type": "address"
        },
        {
          "internalType": "uint256",
          "name": "amount",
          "type": "uint256"
        }
      ],
      "name": "mint",
      "outputs": [],
      "stateMutability": "nonpayable",
      "type": "function"
    },
    {
      "inputs": [],
      "name": "name",
      "outputs": [
        {
          "internalType": "string",
          "name": "",
          "type": "string"
        }
      ],
      "stateMutability": "view",
      "type": "function"
    },
    {
      "inputs": [
        {
          "internalType": "address",
          "name": "owner",
          "type": "address"
        }
      ],
      "name": "nonces",
      "outputs": [
        {
          "internalType": "uint256",
          "name": "",
          "type": "uint256"
        }
      ],
      "stateMutability": "view",
      "type": "function"
    },
    {
      "inputs": [],
      "name": "owner",
      "outputs": [
        {
          "internalType": "address",
          "name": "",
          "type": "address"
        }
      ],
      "stateMutability": "view",
      "type": "function"
    },
    {
      "inputs": [
        {
          "internalType": "address",
          "name": "owner",
          "type": "address"
        },
        {
          "internalType": "address",
          "name": "spender",
          "type": "address"
        },
        {
          "internalType": "uint256",
          "name": "value",
          "type": "uint256"
        },
        {
          "internalType": "uint256",
          "name": "deadline",
          "type": "uint256"
        },
        {
          "internalType": "uint8",
          "name": "v",
          "type": "uint8"
        },
        {
          "internalType": "bytes32",
          "name": "r",
          "type": "bytes32"
        },
        {
          "internalType": "bytes32",
          "name": "s",
          "type": "bytes32"
        }
      ],
      "name": "permit",
      "outputs": [],
      "stateMutability": "nonpayable",
      "type": "function"
    },
    {
      "inputs": [
        {
          "internalType": "string",
          "name": "id",
          "type": "string"
        }
      ],
      "name": "removeId",
      "outputs": [],
      "stateMutability": "nonpayable",
      "type": "function"
    },
    {
      "inputs": [],
      "name": "renounceOwnership",
      "outputs": [],
      "stateMutability": "nonpayable",
      "type": "function"
    },
    {
      "inputs": [],
      "name": "symbol",
      "outputs": [
        {
          "internalType": "string",
          "name": "",
          "type": "string"
        }
      ],
      "stateMutability": "view",
      "type": "function"
    },
    {
      "inputs": [],
      "name": "totalSupply",
      "outputs": [
        {
          "internalType": "uint256",
          "name": "",
          "type": "uint256"
        }
      ],
      "stateMutability": "view",
      "type": "function"
    },
    {
      "inputs": [
        {
          "internalType": "address",
          "name": "to",
          "type": "address"
        },
        {
          "internalType": "uint256",
          "name": "value",
          "type": "uint256"
        }
      ],
      "name": "transfer",
      "outputs": [
        {
          "internalType": "bool",
          "name": "",
          "type": "bool"
        }
      ],
      "stateMutability": "nonpayable",
      "type": "function"
    },
    {
      "inputs": [
        {
          "internalType": "address",
          "name": "from",
          "type": "address"
        },
        {
          "internalType": "address",
          "name": "to",
          "type": "address"
        },
        {
          "internalType": "uint256",
          "name": "value",
          "type": "uint256"
        }
      ],
      "name": "transferFrom",
      "outputs": [
        {
          "internalType": "bool",
          "name": "",
          "type": "bool"
        }
      ],
      "stateMutability": "nonpayable",
      "type": "function"
    },
    {
      "inputs": [
        {
          "internalType": "address",
          "name": "newOwner",
          "type": "address"
        }
      ],
      "name": "transferOwnership",
      "outputs": [],
      "stateMutability": "nonpayable",
      "type": "function"
    }
  ],
  "bytecode": "0x6101606040523480156200001257600080fd5b506040516200345838038062003458833981810160405281019062000038919062000869565b3382806040518060400160405280600181526020017f31000000000000000000000000000000000000000000000000000000000000008152508585816003908162000084919062000b44565b50806004908162000096919062000b44565b505050620000af600583620001ec60201b90919060201c565b6101208181525050620000cd600682620001ec60201b90919060201c565b6101408181525050818051906020012060e08181525050808051906020012061010081815250504660a081815250506200010c6200024460201b60201c565b608081815250503073ffffffffffffffffffffffffffffffffffffffff1660c08173ffffffffffffffffffffffffffffffffffffffff1681525050505050600073ffffffffffffffffffffffffffffffffffffffff168173ffffffffffffffffffffffffffffffffffffffff1603620001bf5760006040517f1e4fbdf7000000000000000000000000000000000000000000000000000000008152600401620001b6919062000c70565b60405180910390fd5b620001d081620002a160201b60201c565b50620001e333846200036760201b60201c565b50505062000ef2565b600060208351101562000212576200020a83620003f460201b60201c565b90506200023e565b8262000224836200046160201b60201c565b600001908162000235919062000b44565b5060ff60001b90505b92915050565b60007f8b73c3c69bb8fe3d512ecc4cf759cc79239f7b179b0ffacaa9a75d522b39400f60e0516101005146306040516020016200028695949392919062000cb9565b60405160208183030381529060405280519060200120905090565b6000600860009054906101000a900473ffffffffffffffffffffffffffffffffffffffff16905081600860006101000a81548173ffffffffffffffffffffffffffffffffffffffff021916908373ffffffffffffffffffffffffffffffffffffffff1602179055508173ffffffffffffffffffffffffffffffffffffffff168173ffffffffffffffffffffffffffffffffffffffff167f8be0079c531659141344cd1fd0a4f28419497f9722a3daafe3b4186f6b6457e060405160405180910390a35050565b600073ffffffffffffffffffffffffffffffffffffffff168273ffffffffffffffffffffffffffffffffffffffff1603620003dc5760006040517fec442f05000000000000000000000000000000000000000000000000000000008152600401620003d3919062000c70565b60405180910390fd5b620003f0600083836200046b60201b60201c565b5050565b600080829050601f815111156200044457826040517f305a27a90000000000000000000000000000000000000000000000000000000081526004016200043b919062000d68565b60405180910390fd5b805181620004529062000dbe565b60001c1760001b915050919050565b6000819050919050565b600073ffffffffffffffffffffffffffffffffffffffff168373ffffffffffffffffffffffffffffffffffffffff1603620004c1578060026000828254620004b4919062000e5d565b9250508190555062000597565b60008060008573ffffffffffffffffffffffffffffffffffffffff1673ffffffffffffffffffffffffffffffffffffffff1681526020019081526020016000205490508181101562000550578381836040517fe450d38c000000000000000000000000000000000000000000000000000000008152600401620005479392919062000e98565b60405180910390fd5b8181036000808673ffffffffffffffffffffffffffffffffffffffff1673ffffffffffffffffffffffffffffffffffffffff16815260200190815260200160002081905550505b600073ffffffffffffffffffffffffffffffffffffffff168273ffffffffffffffffffffffffffffffffffffffff1603620005e257806002600082825403925050819055506200062f565b806000808473ffffffffffffffffffffffffffffffffffffffff1673ffffffffffffffffffffffffffffffffffffffff168152602001908152602001600020600082825401925050819055505b8173ffffffffffffffffffffffffffffffffffffffff168373ffffffffffffffffffffffffffffffffffffffff167fddf252ad1be2c89b69c2b068fc378daa952ba7f163c4a11628f55a4df523b3ef836040516200068e919062000ed5565b60405180910390a3505050565b6000604051905090565b600080fd5b600080fd5b6000819050919050565b620006c481620006af565b8114620006d057600080fd5b50565b600081519050620006e481620006b9565b92915050565b600080fd5b600080fd5b6000601f19601f8301169050919050565b7f4e487b7100000000000000000000000000000000000000000000000000000000600052604160045260246000fd5b6200073f82620006f4565b810181811067ffffffffffffffff8211171562000761576200076062000705565b5b80604052505050565b6000620007766200069b565b905062000784828262000734565b919050565b600067ffffffffffffffff821115620007a757620007a662000705565b5b620007b282620006f4565b9050602081019050919050565b60005b83811015620007df578082015181840152602081019050620007c2565b60008484015250505050565b600062000802620007fc8462000789565b6200076a565b905082815260208101848484011115620008215762000820620006ef565b5b6200082e848285620007bf565b509392505050565b600082601f8301126200084e576200084d620006ea565b5b815162000860848260208601620007eb565b91505092915050565b600080600060608486031215620008855762000884620006a5565b5b60006200089586828701620006d3565b935050602084015167ffffffffffffffff811115620008b957620008b8620006aa565b5b620008c78682870162000836565b925050604084015167ffffffffffffffff811115620008eb57620008ea620006aa565b5b620008f98682870162000836565b9150509250925092565b600081519050919050565b7f4e487b7100000000000000000000000000000000000000000000000000000000600052602260045260246000fd5b600060028204905060018216806200095657607f821691505b6020821081036200096c576200096b6200090e565b5b50919050565b60008190508160005260206000209050919050565b60006020601f8301049050919050565b600082821b905092915050565b600060088302620009d67fffffffffffffffffffffffffffffffffffffffffffffffffffffffffffffffff8262000997565b620009e2868362000997565b95508019841693508086168417925050509392505050565b6000819050919050565b600062000a2562000a1f62000a1984620006af565b620009fa565b620006af565b9050919050565b6000819050919050565b62000a418362000a04565b62000a5962000a508262000a2c565b848454620009a4565b825550505050565b600090565b62000a7062000a61565b62000a7d81848462000a36565b505050565b5b8181101562000aa55762000a9960008262000a66565b60018101905062000a83565b5050565b601f82111562000af45762000abe8162000972565b62000ac98462000987565b8101602085101562000ad9578190505b62000af162000ae88562000987565b83018262000a82565b50505b505050565b600082821c905092915050565b600062000b196000198460080262000af9565b1980831691505092915050565b600062000b34838362000b06565b9150826002028217905092915050565b62000b4f8262000903565b67ffffffffffffffff81111562000b6b5762000b6a62000705565b5b62000b7782546200093d565b62000b8482828562000aa9565b600060209050601f83116001811462000bbc576000841562000ba7578287015190505b62000bb3858262000b26565b86555062000c23565b601f19841662000bcc8662000972565b60005b8281101562000bf65784890151825560018201915060208501945060208101905062000bcf565b8683101562000c16578489015162000c12601f89168262000b06565b8355505b6001600288020188555050505b505050505050565b600073ffffffffffffffffffffffffffffffffffffffff82169050919050565b600062000c588262000c2b565b9050919050565b62000c6a8162000c4b565b82525050565b600060208201905062000c87600083018462000c5f565b92915050565b6000819050919050565b62000ca28162000c8d565b82525050565b62000cb381620006af565b82525050565b600060a08201905062000cd0600083018862000c97565b62000cdf602083018762000c97565b62000cee604083018662000c97565b62000cfd606083018562000ca8565b62000d0c608083018462000c5f565b9695505050505050565b600082825260208201905092915050565b600062000d348262000903565b62000d40818562000d16565b935062000d52818560208601620007bf565b62000d5d81620006f4565b840191505092915050565b6000602082019050818103600083015262000d84818462000d27565b905092915050565b600081519050919050565b6000819050602082019050919050565b600062000db5825162000c8d565b80915050919050565b600062000dcb8262000d8c565b8262000dd78462000d97565b905062000de48162000da7565b9250602082101562000e275762000e227fffffffffffffffffffffffffffffffffffffffffffffffffffffffffffffffff8360200360080262000997565b831692505b5050919050565b7f4e487b7100000000000000000000000000000000000000000000000000000000600052601160045260246000fd5b600062000e6a82620006af565b915062000e7783620006af565b925082820190508082111562000e925762000e9162000e2e565b5b92915050565b600060608201905062000eaf600083018662000c5f565b62000ebe602083018562000ca8565b62000ecd604083018462000ca8565b949350505050565b600060208201905062000eec600083018462000ca8565b92915050565b60805160a05160c05160e05161010051610120516101405161250b62000f4d60003960006110a3015260006110680152600061163a0152600061161901526000610d9401526000610dea01526000610e13015261250b6000f3fe608060405234801561001057600080fd5b506004361061014d5760003560e01c8063715018a6116100c3578063a9059cbb1161007c578063a9059cbb146103a8578063bf40fac1146103d8578063d505accf14610408578063dd62ed3e14610424578063ebd746c914610454578063f2fde38b146104705761014d565b8063715018a6146102f25780637ecebe00146102fc57806384b0196e1461032c5780638da5cb5b1461035057806395d89b411461036e5780639dc29fac1461038c5761014d565b806323b872dd1161011557806323b872dd1461021e578063313ce5671461024e5780633644e5151461026c57806340c10f191461028a5780635735eef1146102a657806370a08231146102c25761014d565b806306fdde0314610152578063095ea7b31461017057806312679602146101a057806312f60f4f146101d057806318160ddd14610200575b600080fd5b61015a61048c565b6040516101679190611b27565b60405180910390f35b61018a60048036038101906101859190611bf1565b61051e565b6040516101979190611c4c565b60405180910390f35b6101ba60048036038101906101b59190611d9c565b610541565b6040516101c79190611df4565b60405180910390f35b6101ea60048036038101906101e59190611d9c565b61055b565b6040516101f79190611e1e565b60405180910390f35b6102086105a4565b6040516102159190611df4565b60405180910390f35b61023860048036038101906102339190611e39565b6105ae565b6040516102459190611c4c565b60405180910390f35b6102566105dd565b6040516102639190611ea8565b60405180910390f35b6102746105e2565b6040516102819190611edc565b60405180910390f35b6102a4600480360381019061029f9190611bf1565b6105f1565b005b6102c060048036038101906102bb9190611ef7565b61064b565b005b6102dc60048036038101906102d79190611f53565b6106b4565b6040516102e99190611df4565b60405180910390f35b6102fa6106fc565b005b61031660048036038101906103119190611f53565b610710565b6040516103239190611df4565b60405180910390f35b610334610722565b6040516103479796959493929190612079565b60405180910390f35b6103586107cc565b6040516103659190611e1e565b60405180910390f35b6103766107f6565b6040516103839190611b27565b60405180910390f35b6103a660048036038101906103a19190611bf1565b610888565b005b6103c260048036038101906103bd9190611bf1565b6108e2565b6040516103cf9190611c4c565b60405180910390f35b6103f260048036038101906103ed9190611d9c565b610905565b6040516103ff9190611e1e565b60405180910390f35b610422600480360381019061041d9190612155565b61094d565b005b61043e600480360381019061043991906121f7565b610a95565b60405161044b9190611df4565b60405180910390f35b61046e60048036038101906104699190611d9c565b610b1c565b005b61048a60048036038101906104859190611f53565b610b68565b005b60606003805461049b90612266565b80601f01602080910402602001604051908101604052809291908181526020018280546104c790612266565b80156105145780601f106104e957610100808354040283529160200191610514565b820191906000526020600020905b8154815290600101906020018083116104f757829003601f168201915b5050505050905090565b600080610529610bee565b9050610536818585610bf6565b600191505092915050565b600061055461054f83610905565b6106b4565b9050919050565b6009818051602081018201805184825260208301602085012081835280955050505050506000915054906101000a900473ffffffffffffffffffffffffffffffffffffffff1681565b6000600254905090565b6000806105b9610bee565b90506105c6858285610c08565b6105d1858585610c9c565b60019150509392505050565b600090565b60006105ec610d90565b905090565b6105f9610e47565b6106038282610ece565b808273ffffffffffffffffffffffffffffffffffffffff167f3fffaa5804a26fcec0d70b1d0fb0a2d0031df3a5f9c8af2127c2f4360e97b46360405160405180910390a35050565b610653610e47565b8060098360405161066491906122d3565b908152602001604051809103902060006101000a81548173ffffffffffffffffffffffffffffffffffffffff021916908373ffffffffffffffffffffffffffffffffffffffff1602179055505050565b60008060008373ffffffffffffffffffffffffffffffffffffffff1673ffffffffffffffffffffffffffffffffffffffff168152602001908152602001600020549050919050565b610704610e47565b61070e6000610f50565b565b600061071b82611016565b9050919050565b60006060806000806000606061073661105f565b61073e61109a565b46306000801b600067ffffffffffffffff81111561075f5761075e611c71565b5b60405190808252806020026020018201604052801561078d5781602001602082028036833780820191505090505b507f0f00000000000000000000000000000000000000000000000000000000000000959493929190965096509650965096509650965090919293949596565b6000600860009054906101000a900473ffffffffffffffffffffffffffffffffffffffff16905090565b60606004805461080590612266565b80601f016020809104026020016040519081016040528092919081815260200182805461083190612266565b801561087e5780601f106108535761010080835404028352916020019161087e565b820191906000526020600020905b81548152906001019060200180831161086157829003601f168201915b5050505050905090565b610890610e47565b61089a82826110d5565b808273ffffffffffffffffffffffffffffffffffffffff167f512586160ebd4dc6945ba9ec5d21a1f723f26f3c7aa36cdffb6818d4e7b8803060405160405180910390a35050565b6000806108ed610bee565b90506108fa818585610c9c565b600191505092915050565b600060098260405161091791906122d3565b908152602001604051809103902060009054906101000a900473ffffffffffffffffffffffffffffffffffffffff169050919050565b8342111561099257836040517f627913020000000000000000000000000000000000000000000000000000000081526004016109899190611df4565b60405180910390fd5b60007f6e71edae12b1b97f4d1f60370fef10105fa2faae0126114a169c64845d6126c98888886109c18c611157565b896040516020016109d7969594939291906122ea565b60405160208183030381529060405280519060200120905060006109fa826111ae565b90506000610a0a828787876111c8565b90508973ffffffffffffffffffffffffffffffffffffffff168173ffffffffffffffffffffffffffffffffffffffff1614610a7e57808a6040517f4b800e46000000000000000000000000000000000000000000000000000000008152600401610a7592919061234b565b60405180910390fd5b610a898a8a8a610bf6565b50505050505050505050565b6000600160008473ffffffffffffffffffffffffffffffffffffffff1673ffffffffffffffffffffffffffffffffffffffff16815260200190815260200160002060008373ffffffffffffffffffffffffffffffffffffffff1673ffffffffffffffffffffffffffffffffffffffff16815260200190815260200160002054905092915050565b610b24610e47565b600981604051610b3491906122d3565b908152602001604051809103902060006101000a81549073ffffffffffffffffffffffffffffffffffffffff021916905550565b610b70610e47565b600073ffffffffffffffffffffffffffffffffffffffff168173ffffffffffffffffffffffffffffffffffffffff1603610be25760006040517f1e4fbdf7000000000000000000000000000000000000000000000000000000008152600401610bd99190611e1e565b60405180910390fd5b610beb81610f50565b50565b600033905090565b610c0383838360016111f8565b505050565b6000610c148484610a95565b90507fffffffffffffffffffffffffffffffffffffffffffffffffffffffffffffffff8114610c965781811015610c86578281836040517ffb8f41b2000000000000000000000000000000000000000000000000000000008152600401610c7d93929190612374565b60405180910390fd5b610c95848484840360006111f8565b5b50505050565b600073ffffffffffffffffffffffffffffffffffffffff168373ffffffffffffffffffffffffffffffffffffffff1603610d0e5760006040517f96c6fd1e000000000000000000000000000000000000000000000000000000008152600401610d059190611e1e565b60405180910390fd5b600073ffffffffffffffffffffffffffffffffffffffff168273ffffffffffffffffffffffffffffffffffffffff1603610d805760006040517fec442f05000000000000000000000000000000000000000000000000000000008152600401610d779190611e1e565b60405180910390fd5b610d8b8383836113cf565b505050565b60007f000000000000000000000000000000000000000000000000000000000000000073ffffffffffffffffffffffffffffffffffffffff163073ffffffffffffffffffffffffffffffffffffffff16148015610e0c57507f000000000000000000000000000000000000000000000000000000000000000046145b15610e39577f00000000000000000000000000000000000000000000000000000000000000009050610e44565b610e416115f4565b90505b90565b610e4f610bee565b73ffffffffffffffffffffffffffffffffffffffff16610e6d6107cc565b73ffffffffffffffffffffffffffffffffffffffff1614610ecc57610e90610bee565b6040517f118cdaa7000000000000000000000000000000000000000000000000000000008152600401610ec39190611e1e565b60405180910390fd5b565b600073ffffffffffffffffffffffffffffffffffffffff168273ffffffffffffffffffffffffffffffffffffffff1603610f405760006040517fec442f05000000000000000000000000000000000000000000000000000000008152600401610f379190611e1e565b60405180910390fd5b610f4c600083836113cf565b5050565b6000600860009054906101000a900473ffffffffffffffffffffffffffffffffffffffff16905081600860006101000a81548173ffffffffffffffffffffffffffffffffffffffff021916908373ffffffffffffffffffffffffffffffffffffffff1602179055508173ffffffffffffffffffffffffffffffffffffffff168173ffffffffffffffffffffffffffffffffffffffff167f8be0079c531659141344cd1fd0a4f28419497f9722a3daafe3b4186f6b6457e060405160405180910390a35050565b6000600760008373ffffffffffffffffffffffffffffffffffffffff1673ffffffffffffffffffffffffffffffffffffffff168152602001908152602001600020549050919050565b606061109560057f000000000000000000000000000000000000000000000000000000000000000061168a90919063ffffffff16565b905090565b60606110d060067f000000000000000000000000000000000000000000000000000000000000000061168a90919063ffffffff16565b905090565b600073ffffffffffffffffffffffffffffffffffffffff168273ffffffffffffffffffffffffffffffffffffffff16036111475760006040517f96c6fd1e00000000000000000000000000000000000000000000000000000000815260040161113e9190611e1e565b60405180910390fd5b611153826000836113cf565b5050565b6000600760008373ffffffffffffffffffffffffffffffffffffffff1673ffffffffffffffffffffffffffffffffffffffff1681526020019081526020016000206000815480929190600101919050559050919050565b60006111c16111bb610d90565b8361173a565b9050919050565b6000806000806111da8888888861177b565b9250925092506111ea828261186f565b829350505050949350505050565b600073ffffffffffffffffffffffffffffffffffffffff168473ffffffffffffffffffffffffffffffffffffffff160361126a5760006040517fe602df050000000000000000000000000000000000000000000000000000000081526004016112619190611e1e565b60405180910390fd5b600073ffffffffffffffffffffffffffffffffffffffff168373ffffffffffffffffffffffffffffffffffffffff16036112dc5760006040517f94280d620000000000000000000000000000000000000000000000000000000081526004016112d39190611e1e565b60405180910390fd5b81600160008673ffffffffffffffffffffffffffffffffffffffff1673ffffffffffffffffffffffffffffffffffffffff16815260200190815260200160002060008573ffffffffffffffffffffffffffffffffffffffff1673ffffffffffffffffffffffffffffffffffffffff1681526020019081526020016000208190555080156113c9578273ffffffffffffffffffffffffffffffffffffffff168473ffffffffffffffffffffffffffffffffffffffff167f8c5be1e5ebec7d5bd14f71427d1e84f3dd0314c0f7b2291e5b200ac8c7c3b925846040516113c09190611df4565b60405180910390a35b50505050565b600073ffffffffffffffffffffffffffffffffffffffff168373ffffffffffffffffffffffffffffffffffffffff160361142157806002600082825461141591906123da565b925050819055506114f4565b60008060008573ffffffffffffffffffffffffffffffffffffffff1673ffffffffffffffffffffffffffffffffffffffff168152602001908152602001600020549050818110156114ad578381836040517fe450d38c0000000000000000000000000000000000000000000000000000000081526004016114a493929190612374565b60405180910390fd5b8181036000808673ffffffffffffffffffffffffffffffffffffffff1673ffffffffffffffffffffffffffffffffffffffff16815260200190815260200160002081905550505b600073ffffffffffffffffffffffffffffffffffffffff168273ffffffffffffffffffffffffffffffffffffffff160361153d578060026000828254039250508190555061158a565b806000808473ffffffffffffffffffffffffffffffffffffffff1673ffffffffffffffffffffffffffffffffffffffff168152602001908152602001600020600082825401925050819055505b8173ffffffffffffffffffffffffffffffffffffffff168373ffffffffffffffffffffffffffffffffffffffff167fddf252ad1be2c89b69c2b068fc378daa952ba7f163c4a11628f55a4df523b3ef836040516115e79190611df4565b60405180910390a3505050565b60007f8b73c3c69bb8fe3d512ecc4cf759cc79239f7b179b0ffacaa9a75d522b39400f7f00000000000000000000000000000000000000000000000000000000000000007f0000000000000000000000000000000000000000000000000000000000000000463060405160200161166f95949392919061240e565b60405160208183030381529060405280519060200120905090565b606060ff60001b83146116a7576116a0836119d3565b9050611734565b8180546116b390612266565b80601f01602080910402602001604051908101604052809291908181526020018280546116df90612266565b801561172c5780601f106117015761010080835404028352916020019161172c565b820191906000526020600020905b81548152906001019060200180831161170f57829003601f168201915b505050505090505b92915050565b60006040517f190100000000000000000000000000000000000000000000000000000000000081528360028201528260228201526042812091505092915050565b60008060007f7fffffffffffffffffffffffffffffff5d576e7357a4501ddfe92f46681b20a08460001c11156117bb576000600385925092509250611865565b6000600188888888604051600081526020016040526040516117e09493929190612461565b6020604051602081039080840390855afa158015611802573d6000803e3d6000fd5b505050602060405103519050600073ffffffffffffffffffffffffffffffffffffffff168173ffffffffffffffffffffffffffffffffffffffff160361185657600060016000801b93509350935050611865565b8060008060001b935093509350505b9450945094915050565b60006003811115611883576118826124a6565b5b826003811115611896576118956124a6565b5b03156119cf57600160038111156118b0576118af6124a6565b5b8260038111156118c3576118c26124a6565b5b036118fa576040517ff645eedf00000000000000000000000000000000000000000000000000000000815260040160405180910390fd5b6002600381111561190e5761190d6124a6565b5b826003811115611921576119206124a6565b5b03611966578060001c6040517ffce698f700000000000000000000000000000000000000000000000000000000815260040161195d9190611df4565b60405180910390fd5b600380811115611979576119786124a6565b5b82600381111561198c5761198b6124a6565b5b036119ce57806040517fd78bce0c0000000000000000000000000000000000000000000000000000000081526004016119c59190611edc565b60405180910390fd5b5b5050565b606060006119e083611a47565b90506000602067ffffffffffffffff8111156119ff576119fe611c71565b5b6040519080825280601f01601f191660200182016040528015611a315781602001600182028036833780820191505090505b5090508181528360208201528092505050919050565b60008060ff8360001c169050601f811115611a8e576040517fb3512b0c00000000000000000000000000000000000000000000000000000000815260040160405180910390fd5b80915050919050565b600081519050919050565b600082825260208201905092915050565b60005b83811015611ad1578082015181840152602081019050611ab6565b60008484015250505050565b6000601f19601f8301169050919050565b6000611af982611a97565b611b038185611aa2565b9350611b13818560208601611ab3565b611b1c81611add565b840191505092915050565b60006020820190508181036000830152611b418184611aee565b905092915050565b6000604051905090565b600080fd5b600080fd5b600073ffffffffffffffffffffffffffffffffffffffff82169050919050565b6000611b8882611b5d565b9050919050565b611b9881611b7d565b8114611ba357600080fd5b50565b600081359050611bb581611b8f565b92915050565b6000819050919050565b611bce81611bbb565b8114611bd957600080fd5b50565b600081359050611beb81611bc5565b92915050565b60008060408385031215611c0857611c07611b53565b5b6000611c1685828601611ba6565b9250506020611c2785828601611bdc565b9150509250929050565b60008115159050919050565b611c4681611c31565b82525050565b6000602082019050611c616000830184611c3d565b92915050565b600080fd5b600080fd5b7f4e487b7100000000000000000000000000000000000000000000000000000000600052604160045260246000fd5b611ca982611add565b810181811067ffffffffffffffff82111715611cc857611cc7611c71565b5b80604052505050565b6000611cdb611b49565b9050611ce78282611ca0565b919050565b600067ffffffffffffffff821115611d0757611d06611c71565b5b611d1082611add565b9050602081019050919050565b82818337600083830152505050565b6000611d3f611d3a84611cec565b611cd1565b905082815260208101848484011115611d5b57611d5a611c6c565b5b611d66848285611d1d565b509392505050565b600082601f830112611d8357611d82611c67565b5b8135611d93848260208601611d2c565b91505092915050565b600060208284031215611db257611db1611b53565b5b600082013567ffffffffffffffff811115611dd057611dcf611b58565b5b611ddc84828501611d6e565b91505092915050565b611dee81611bbb565b82525050565b6000602082019050611e096000830184611de5565b92915050565b611e1881611b7d565b82525050565b6000602082019050611e336000830184611e0f565b92915050565b600080600060608486031215611e5257611e51611b53565b5b6000611e6086828701611ba6565b9350506020611e7186828701611ba6565b9250506040611e8286828701611bdc565b9150509250925092565b600060ff82169050919050565b611ea281611e8c565b82525050565b6000602082019050611ebd6000830184611e99565b92915050565b6000819050919050565b611ed681611ec3565b82525050565b6000602082019050611ef16000830184611ecd565b92915050565b60008060408385031215611f0e57611f0d611b53565b5b600083013567ffffffffffffffff811115611f2c57611f2b611b58565b5b611f3885828601611d6e565b9250506020611f4985828601611ba6565b9150509250929050565b600060208284031215611f6957611f68611b53565b5b6000611f7784828501611ba6565b91505092915050565b60007fff0000000000000000000000000000000000000000000000000000000000000082169050919050565b611fb581611f80565b82525050565b600081519050919050565b600082825260208201905092915050565b6000819050602082019050919050565b611ff081611bbb565b82525050565b60006120028383611fe7565b60208301905092915050565b6000602082019050919050565b600061202682611fbb565b6120308185611fc6565b935061203b83611fd7565b8060005b8381101561206c5781516120538882611ff6565b975061205e8361200e565b92505060018101905061203f565b5085935050505092915050565b600060e08201905061208e600083018a611fac565b81810360208301526120a08189611aee565b905081810360408301526120b48188611aee565b90506120c36060830187611de5565b6120d06080830186611e0f565b6120dd60a0830185611ecd565b81810360c08301526120ef818461201b565b905098975050505050505050565b61210681611e8c565b811461211157600080fd5b50565b600081359050612123816120fd565b92915050565b61213281611ec3565b811461213d57600080fd5b50565b60008135905061214f81612129565b92915050565b600080600080600080600060e0888a03121561217457612173611b53565b5b60006121828a828b01611ba6565b97505060206121938a828b01611ba6565b96505060406121a48a828b01611bdc565b95505060606121b58a828b01611bdc565b94505060806121c68a828b01612114565b93505060a06121d78a828b01612140565b92505060c06121e88a828b01612140565b91505092959891949750929550565b6000806040838503121561220e5761220d611b53565b5b600061221c85828601611ba6565b925050602061222d85828601611ba6565b9150509250929050565b7f4e487b7100000000000000000000000000000000000000000000000000000000600052602260045260246000fd5b6000600282049050600182168061227e57607f821691505b60208210810361229157612290612237565b5b50919050565b600081905092915050565b60006122ad82611a97565b6122b78185612297565b93506122c7818560208601611ab3565b80840191505092915050565b60006122df82846122a2565b915081905092915050565b600060c0820190506122ff6000830189611ecd565b61230c6020830188611e0f565b6123196040830187611e0f565b6123266060830186611de5565b6123336080830185611de5565b61234060a0830184611de5565b979650505050505050565b60006040820190506123606000830185611e0f565b61236d6020830184611e0f565b9392505050565b60006060820190506123896000830186611e0f565b6123966020830185611de5565b6123a36040830184611de5565b949350505050565b7f4e487b7100000000000000000000000000000000000000000000000000000000600052601160045260246000fd5b60006123e582611bbb565b91506123f083611bbb565b9250828201905080821115612408576124076123ab565b5b92915050565b600060a0820190506124236000830188611ecd565b6124306020830187611ecd565b61243d6040830186611ecd565b61244a6060830185611de5565b6124576080830184611e0f565b9695505050505050565b60006080820190506124766000830187611ecd565b6124836020830186611e99565b6124906040830185611ecd565b61249d6060830184611ecd565b95945050505050565b7f4e487b7100000000000000000000000000000000000000000000000000000000600052602160045260246000fdfea264697066735822122032cb14f967def9adccac7abaeeca0eb9b7d48fde0613e51e4ac6fb067e564e6964736f6c63430008180033",
  "linkReferences": {},
  "deployedLinkReferences": {}
}